{
  "_format": "hh-sol-artifact-1",
  "contractName": "voteSystem",
  "sourceName": "contracts/voteSystem.sol",
  "abi": [
    {
      "inputs": [
        {
          "internalType": "uint256",
          "name": "_timeStart",
          "type": "uint256"
        },
        {
          "internalType": "uint256",
          "name": "_timeEnd",
          "type": "uint256"
        }
      ],
      "stateMutability": "nonpayable",
      "type": "constructor"
    },
    {
      "anonymous": false,
      "inputs": [
        {
          "indexed": false,
          "internalType": "address",
          "name": "person",
          "type": "address"
        }
      ],
      "name": "UserVote",
      "type": "event"
    },
    {
      "inputs": [],
      "name": "getTimeEnd",
      "outputs": [
        {
          "internalType": "uint256",
          "name": "",
          "type": "uint256"
        }
      ],
      "stateMutability": "view",
      "type": "function"
    },
    {
      "inputs": [],
      "name": "getTimeStart",
      "outputs": [
        {
          "internalType": "uint256",
          "name": "",
          "type": "uint256"
        }
      ],
      "stateMutability": "view",
      "type": "function"
    },
    {
      "inputs": [
        {
          "internalType": "address",
          "name": "add",
          "type": "address"
        }
      ],
      "name": "hasAlreadyVoted",
      "outputs": [
        {
          "internalType": "bool",
          "name": "",
          "type": "bool"
        }
      ],
      "stateMutability": "view",
      "type": "function"
    },
    {
      "inputs": [
        {
          "internalType": "enum voteSystem.Candidates",
          "name": "candidate",
          "type": "uint8"
        }
      ],
      "name": "vote",
      "outputs": [],
      "stateMutability": "nonpayable",
      "type": "function"
    }
  ],
  "bytecode": "0x608060405234801561001057600080fd5b506040516107d03803806107d08339818101604052810190610032919061008a565b8160008190555080600181905550600460028190555050506100ca565b600080fd5b6000819050919050565b61006781610054565b811461007257600080fd5b50565b6000815190506100848161005e565b92915050565b600080604083850312156100a1576100a061004f565b5b60006100af85828601610075565b92505060206100c085828601610075565b9150509250929050565b6106f7806100d96000396000f3fe608060405234801561001057600080fd5b506004361061004c5760003560e01c80638574d5b0146100515780638b915c2514610081578063a2221ffc1461009f578063b3f98adc146100bd575b600080fd5b61006b600480360381019061006691906103a1565b6100d9565b60405161007891906103e9565b60405180910390f35b61008961012f565b604051610096919061041d565b60405180910390f35b6100a7610138565b6040516100b4919061041d565b60405180910390f35b6100d760048036038101906100d2919061045d565b610142565b005b6000600460008373ffffffffffffffffffffffffffffffffffffffff1673ffffffffffffffffffffffffffffffffffffffff16815260200190815260200160002060009054906101000a900460ff169050919050565b60008054905090565b6000600154905090565b60001515600460003373ffffffffffffffffffffffffffffffffffffffff1673ffffffffffffffffffffffffffffffffffffffff16815260200190815260200160002060009054906101000a900460ff161515146101d5576040517f08c379a00000000000000000000000000000000000000000000000000000000081526004016101cc906104e7565b60405180910390fd5b6000544211610219576040517f08c379a000000000000000000000000000000000000000000000000000000000815260040161021090610579565b60405180910390fd5b600154421061025d576040517f08c379a0000000000000000000000000000000000000000000000000000000008152600401610254906105e5565b60405180910390fd5b6001600460003373ffffffffffffffffffffffffffffffffffffffff1673ffffffffffffffffffffffffffffffffffffffff16815260200190815260200160002060006101000a81548160ff0219169083151502179055506001600360008360038111156102ce576102cd610605565b5b60038111156102e0576102df610605565b5b815260200190815260200160002060008282546102fd9190610663565b925050819055507f33d3480a0f9dfb14a4bbe0a6ca1f37fc102c865b6060052a38ff4bf5af6099133360405161033391906106a6565b60405180910390a150565b600080fd5b600073ffffffffffffffffffffffffffffffffffffffff82169050919050565b600061036e82610343565b9050919050565b61037e81610363565b811461038957600080fd5b50565b60008135905061039b81610375565b92915050565b6000602082840312156103b7576103b661033e565b5b60006103c58482850161038c565b91505092915050565b60008115159050919050565b6103e3816103ce565b82525050565b60006020820190506103fe60008301846103da565b92915050565b6000819050919050565b61041781610404565b82525050565b6000602082019050610432600083018461040e565b92915050565b6004811061044557600080fd5b50565b60008135905061045781610438565b92915050565b6000602082840312156104735761047261033e565b5b600061048184828501610448565b91505092915050565b600082825260208201905092915050565b7f5573657220616c726561647920766f7465640000000000000000000000000000600082015250565b60006104d160128361048a565b91506104dc8261049b565b602082019050919050565b60006020820190508181036000830152610500816104c4565b9050919050565b7f54686520766f74696e672074696d65206861736e206e6f74207374617274656460008201527f2000000000000000000000000000000000000000000000000000000000000000602082015250565b600061056360218361048a565b915061056e82610507565b604082019050919050565b6000602082019050818103600083015261059281610556565b9050919050565b7f54686520766f74696e672068617320616c726561647920656e64656400000000600082015250565b60006105cf601c8361048a565b91506105da82610599565b602082019050919050565b600060208201905081810360008301526105fe816105c2565b9050919050565b7f4e487b7100000000000000000000000000000000000000000000000000000000600052602160045260246000fd5b7f4e487b7100000000000000000000000000000000000000000000000000000000600052601160045260246000fd5b600061066e82610404565b915061067983610404565b925082820190508082111561069157610690610634565b5b92915050565b6106a081610363565b82525050565b60006020820190506106bb6000830184610697565b9291505056fea26469706673582212208617553c4ef23e11d19c9f466d755f7cfb859256b1813f218d017937cfdba16664736f6c63430008120033",
  "linkReferences": {},
  "deployedLinkReferences": {}
}